:060000000A128A11732FA1
:100EE60083010A128A11772F03100030031801308C
:100EF600F100831603138717071386018312031362
:100F0600860181308316031399001815181283126F
:100F160003139817831603139816831203131816D0
:100F2600952F952F8C1E982F992F952F9A2F1A084B
:100F3600F0007008F1007108613A031DA32FA42F79
:100F4600AD2F06148610061586110616861206178C
:100F56008613952F7108623A031DB22FB32FBC2F4B
:100F660006108614061186150612861606138617AF
:100F7600952F7108633A031DC12FC22FDA2F8610F1
:100F86000610061EC72FC82FCE2F861ACB2FCC2FA2
:100F9600CE2F06158611061AD12FD22F952F861E13
:100FA600D52FD62F952F06118615952F952F7108BB
:100FB600643A031DDF2FE02F952F86110611061EBA
:100FC600E52FE62FEC2F861AE92FEA2FEC2F0614D1
:100FD6008610061AEF2FF02F952F861EF32FF42F6B
:100FE600952F06108614952F952F952F952F952FB3
:0A0FF600952F952F0A128A1100288A
:02400E003A3F37
:00000001FF
